:020000040800F2
:1000000000000220E53F0008D5070008D7070008D8
:10001000D9070008DB070008DD0700080000000022
:10002000000000000000000000000000113D00087A
:10003000DF07000800000000B13D0008153E000881
:1000400035400008354000083540000835400008BC
:1000500035400008354000083540000835400008AC
:10006000354000083540000835400008354000089C
:10007000354000083540000835400008354000088C
:10008000354000083540000835400008354000087C
:10009000354000083540000835400008354000086C
:1000A000354000083540000835400008354000085C
:1000B000354000083540000835400008354000084C
:1000C000354000083540000835400008354000083C
:1000D000354000083540000835400008354000082C
:1000E000354000083540000835400008E1070008A9
:1000F000354000083540000835400008354000080C
:1001000035400008354000083540000835400008FB
:1001100035400008354000083540000835400008EB
:1001200035400008354000083540000835400008DB
:1001300035400008000000000000000035400008C5
:1001400035400008354000083540000835400008BB
:1001500035400008354000083540000835400008AB
:10016000354000083540000835400008354000089B
:100170003540000835400008354000080000000008
:1001800000000000354000080000000000000000F2
:100190003540000800000000000000003540000865
:1001A00000000000000000000000000035400008D2
:1001B000354000083540000835400008354000084B
:0401C00035400008BE
:1001D00010B5054C237833B9044B13B10448AFF381
:1001E00000800123237010BD0C00002000000000DF
:1001F000A840000808B5034B1BB103490348AFF3FF
:10020000008008BD0000000010000020A840000889
:1002100053B94AB9002908BF00281CBF4FF0FF316D
:100220004FF0FF3000F072B9ADF1080C6DE904CE6B
:1002300000F006F8DDF804E0DDE9022304B07047C1
:100240002DE9F047089E04468846002B4BD18A4290
:10025000154667D9B2FA82F24AB1C2F1200701FA13
:1002600002F320FA07F7954047EA030894404FEA63
:10027000154E230CB8FBFEF71FFA85FC0EFB178802
:1002800043EA084307FB0CF1994209D9EB1807F13F
:10029000FF3080F01B81994240F21881023F2B44CD
:1002A0005B1AA4B2B3FBFEF00EFB103344EA034426
:1002B00000FB0CFCA44509D92C1900F1FF3380F098
:1002C0000781A44540F2048102382C4440EA0740EB
:1002D000A4EB0C0400271EB1D4400023C6E9004360
:1002E0003946BDE8F0878B4209D9002E00F0EB803B
:1002F0000027C6E9000138463946BDE8F087B3FA61
:1003000083F7002F47D18B4202D3824200F2FA805A
:10031000841A61EB030301209846002EE0D0C6E961
:100320000048DDE702B9FFDEB2FA82F2002A40F0AF
:100330008F80491B4FEA154E1FFA85F80127B1FB44
:10034000FEFC230C0EFB1C1143EA014308FB0CF1DD
:10035000994207D9EB180CF1FF3002D2994200F212
:10036000CD808446591AA3B2B1FBFEF00EFB1014E7
:1003700043EA044408FB00F8A04507D92C1900F112
:10038000FF3302D2A04500F2B6801846A4EB080461
:1003900040EA0C409FE7C7F1200CBB4022FA0CFE5C
:1003A0004EEA030E01FA07F420FA0CF521FA0CF3D9
:1003B0004FEA1E482543B3FBF8F92C0C08FB193310
:1003C0001FFA8EFA44EA034309FB0AF49C4202FA3C
:1003D00007F200FA07F10BD91EEB030309F1FF3016
:1003E00080F087809C4240F28480A9F10209734426
:1003F0001B1BADB2B3FBF8F008FB103345EA034416
:1004000000FB0AFAA24508D91EEB040400F1FF33F1
:100410006BD2A24569D90238744440EA0940A0FB76
:100420000289A4EB0A044C45C2464B4654D351D032
:10043000002E69D0B1EB0A0564EB030404FA0CFC4E
:10044000FD40FC404CEA0505C6E90054002747E79B
:10045000C2F1200320FA03F7954001FA02F021FAD5
:1004600003F34FEA154E3843010CB3FBFEF71FFAB6
:1004700085F80EFB173341EA034107FB08F38B4273
:1004800004FA02F407D9691807F1FF3C2FD28B4216
:100490002DD9023F2944CB1A81B2B3FBFEF00EFBEB
:1004A000103341EA034100FB08F38B4207D9691876
:1004B00000F1FF3C17D28B4215D902382944C91AE2
:1004C00040EA07473BE73746304609E70746E7E695
:1004D0001846FBE64145ABD2B8EB020A69EB0E02C7
:1004E00001381346A4E76046E9E7184695E76746F2
:1004F000D1E781467CE702382C4447E7ACF1020C97
:100500002B442FE7384608E73746E9E6704700BF37
:10051000F0B58DB000240794089409940A940B94C4
:100520000194384B1A6B42F004021A631A6B02F002
:1005300004020192019A02941A6B42F080021A633B
:100540001A6B02F080020292029A03941A6B42F034
:1005500002021A631A6B02F002020392039A0494D5
:100560001A6B42F008021A631A6B02F00802049236
:10057000049A05941A6B42F040021A631A6B02F057
:1005800040020592059A06941A6B42F001021A6322
:100590001B6B03F001030693069B1B4F22464FF48F
:1005A0008141384601F002FE184D2246402128467E
:1005B00001F0FCFD4FF400530793154B0893099489
:1005C00007A9144801F014FD4FF481430793012655
:1005D000089609940A9407A9384601F009FD4023BA
:1005E0000793089609940A9407A9284601F000FD8C
:1005F000802307930894099407A9284601F0F8FC82
:100600000DB0F0BD00380240000402400018024066
:10061000000011100008024008B50848084B0360AC
:100620004FF4E133436000238360C36003610C2215
:1006300042618361C36100F0A7FC08BD304900201E
:100640000048004008B50A484FF0A0430360062365
:1006500043600222C2600023036182610122C26101
:1006600003624362C262036300F0BDFC08BD00BFC9
:100670007049002008B5012003F09CF9FBE708B59C
:10068000012003F097F9FBE730B5ADB0342200212B
:100690001FA803F000FD00241A941B941C941D94C1
:1006A0001E945C22214603A803F0F5FC0194204B24
:1006B0001A6C42F080521A641B6C03F08053019351
:1006C000019B02941B4B1A6842F440421A601B685B
:1006D00003F440430293029B01231F934FF4A02392
:1006E0002093022525954FF4800326930423279316
:1006F000A8232893299507232A932B951FA801F057
:1007000095FA0F231A931B951C944FF4A0531D9335
:100710004FF480531E9305211AA800F097FE4FF462
:1007200080730393189403A800F080FF2DB030BDB0
:10073000003802400070004000B593B001F090FD19
:10074000FFF7A2FFFFF7E4FEFFF766FFFFF77AFF70
:1007500003F074F820252A4600210AA803F09BFC28
:10076000104B099380240E9418230F9309AA00219B
:100770000D4803F0ABF80D4B18602A46002101A884
:1007800003F089FC0A4B00930594082306936A46FC
:100790000021084803F09AF8074B186003F070F83E
:1007A000FEE700BFC0400008750600082C49002085
:1007B000CC4000087F060008784D002008B502688C
:1007C000034B9A4200D008BD01F064FDFBE700BF77
:1007D000001800407047FEE7FEE7FEE7FEE77047BF
:1007E00008B5024800F0F8F808BD00BF7C4D0020B5
:1007F00000B583B0002200920D4B596C41F480414A
:100800005964596C01F48041009100990192196C6E
:1008100041F0805119641B6C03F080530193019BDC
:100820000F216FF0010001F0D9FC03B05DF804FB6B
:100830000038024000B589B0002303930493059368
:10084000069307930268164B9A4202D009B05DF8EE
:1008500004FB0021019103F5F8331A6C42F4802265
:100860001A641A6C02F480220192019A02911A6BA6
:1008700042F008021A631B6B03F008030293029B09
:100880004FF440730393022304930123059303233E
:1008900006930723079303A9024801F0A9FBD5E7B4
:1008A00000480040000C024070B588B0002303935C
:1008B00004930593069307930368B3F1A04F01D007
:1008C00008B070BD00250195174C236B43F0010360
:1008D0002363236B03F001030193019B4FF4E8535F
:1008E000039302230493032306930A2307930F4ED3
:1008F00003A9304601F07CFB4FF400730393049589
:10090000059503A9304601F073FB636B43F0800348
:1009100063630295636C43F480436364636C03F424
:1009200080430293029BCBE7003802400000024064
:1009300010B588B0002201462B2001F04FFC2B207F
:1009400001F080FC00240194144B1A6C42F0400228
:100950001A641B6C03F040030193019B02A903A8D6
:1009600000F046FE00F024FE43000D48A0FB0323E8
:100970009B0C013B0B480C4A026040F2E732C2601C
:1009800043600461846000F049F910B1012008B0AF
:1009900010BD044800F00BF8F9E700BF0038024032
:1009A00083DE1B437C4D0020001800407047026826
:1009B000D36843F00103D3600268936803F0070330
:1009C000062B03D0136843F0010313600020704727
:1009D000704770477047704710B5044603681A693E
:1009E00012F0020F11D0DA6812F0020F0DD06FF082
:1009F00002021A610123037703689B6913F0030F56
:100A000070D0FFF7E6FF0023237723681A6912F0FE
:100A1000040F12D0DA6812F0040F0ED06FF0040247
:100A20001A610223237723689B6913F4407F5FD008
:100A30002046FFF7CEFF0023237723681A6912F0C0
:100A4000080F12D0DA6812F0080F0ED06FF008020B
:100A50001A61042323772368DB6913F0030F4ED058
:100A60002046FFF7B6FF0023237723681A6912F0A8
:100A7000100F12D0DA6812F0100F0ED06FF01002C3
:100A80001A61082323772368DB6913F4407F3DD084
:100A90002046FFF79EFF0023237723681A6912F090
:100AA000010F03D0DA6812F0010F36D123681A69FA
:100AB00012F0800F03D0DA6812F0800F34D123686F
:100AC0001A6912F0400F03D0DA6812F0400F32D1E9
:100AD00023681A6912F0200F03D0DA6812F0200F91
:100AE00030D110BDFFF774FF2046FFF773FF8AE790
:100AF0002046FFF76DFF2046FFF76CFF9BE720467F
:100B0000FFF766FF2046FFF765FFACE72046FFF7DB
:100B10005FFF2046FFF75EFFBDE76FF001021A613D
:100B20002046FFF74BFEC1E76FF080021A612046B6
:100B300000F08EF8C3E76FF040021A612046FFF71D
:100B40004AFFC5E76FF020021A61204600F07FF8E7
:100B5000C7E700000368304A904212D0B0F1804FDE
:100B60000FD0A2F57C4290420BD002F580629042F9
:100B700007D002F58062904203D002F5784290429D
:100B800003D123F070034A681343234A90422AD0CA
:100B9000B0F1804F27D0A2F57C42904223D002F5DD
:100BA000806290421FD002F5806290421BD002F515
:100BB0007842904217D002F57052904213D002F55D
:100BC000806290420FD002F5806290420BD0A2F575
:100BD0009832904207D002F58062904203D002F52D
:100BE0008062904203D123F44073CA68134323F018
:100BF00080034A69134303608B68C3620B68836296
:100C0000054B984203D003F58063984201D10B69EC
:100C1000036301234361704700000140A8B110B590
:100C2000044690F83D305BB1022384F83D30211D2D
:100C30002068FFF78FFF012384F83D30002010BDAE
:100C400080F83C30FFF7B2FEEEE7012070477047B6
:100C5000704700002DE9F84304460268136923F445
:100C60004053C1680B4313618368026913434269AF
:100C70001343C2691A430168CB6823F4164323F077
:100C80000C031343CB600268536923F440738169FA
:100C90000B435361C369B3F5004F60D00368B84A92
:100CA000934200F0148102F58062934200F00F81BC
:100CB00000F07EFC00EB800000EB80006568AD007A
:100CC000B0FBF5F5AF4FA7FB05356D092E0100F020
:100CD0006FFC00EB800000EB80006568AD00B0FBAE
:100CE000F5F900F065FC00EB800000EB8000656822
:100CF000AD00B0FBF5F5A7FB05356D094FF06408B5
:100D000008FB15952D013235A7FB05356D0905F05A
:100D1000F005354400F04CFC00EB800000EB800057
:100D20006668B600B0FBF6F600F042FC00EB80000F
:100D300000EB800063689B00B0FBF3F0A7FB003082
:100D4000400908FB10684FEA081808F13208A7FBB1
:100D50000837C7F3431723682F449F600DE10368EA
:100D6000874A93425BD002F58062934257D000F0ED
:100D70001FFC00EB800000EB800065686D00B0FB9D
:100D8000F5F5804FA7FB05356D092E0100F010FC2D
:100D900000EB800000EB800065686D00B0FBF5F9AA
:100DA00000F006FC00EB800000EB800065686D0041
:100DB000B0FBF5F5A7FB05356D094FF0640808FB9E
:100DC0001595ED003235A7FB05356D096D0005F46D
:100DD000F875354400F0ECFB00EB800000EB800080
:100DE00066687600B0FBF6F600F0E2FB00EB8000F0
:100DF00000EB800063685B00B0FBF3F3A7FB032309
:100E00005B0908FB13684FEAC80808F13208A7FB22
:100E10000837C7F3421723682F449F60ADE000F006
:100E2000D7FB00EB800000EB800065686D00B0FB35
:100E3000F5F5544FA7FB05356D092E0100F0C8FBF1
:100E400000EB800000EB800065686D00B0FBF5F9F9
:100E500000F0BEFB00EB800000EB800065686D00D9
:100E6000B0FBF5F5A7FB05356D094FF0640808FBED
:100E70001595ED003235A7FB05356D096D0005F4BC
:100E8000F875354400F0A4FB00EB800000EB800017
:100E900066687600B0FBF6F600F09AFB00EB800087
:100EA00000EB800063685B00B0FBF3F3A7FB032358
:100EB0005B0908FB13684FEAC80808F13208A7FB72
:100EC0000837C7F3421723682F449F6055E000F0AE
:100ED0007FFB00EB800000EB80006568AD00B0FB9D
:100EE000F5F5284FA7FB05356D092E0100F070FBC5
:100EF00000EB800000EB80006568AD00B0FBF5F909
:100F000000F066FB00EB800000EB80006568AD0040
:100F1000B0FBF5F5A7FB05356D094FF0640808FB3C
:100F200015952D013235A7FB05356D0905F0F00546
:100F3000354400F04DFB00EB800000EB800066685C
:100F4000B600B0FBF6F600F043FB00EB800000EBD0
:100F5000800063689B00B0FBF3F0A7FB0030400902
:100F600008FB10684FEA081808F13208A7FB083799
:100F7000C7F3431723682F449F60BDE8F88300BF81
:100F8000001001401F85EB5158B310B5044690F88E
:100F900039300BB3242384F839302268D36823F422
:100FA0000053D3602046FFF755FE2268136923F4EF
:100FB000904313612268536923F02A035361226826
:100FC000D36843F40053D3600020E063202384F807
:100FD000393084F83A3010BD80F83830FFF72AFCF9
:100FE000D8E701207047F0B58BB0002800F0918061
:100FF0000446056890F8BD3323B3032384F8BD335A
:10100000EB6B13F4807F01D100232361206800F093
:10101000F8F8254655F8107B6E460FCD0FC60FCD5C
:101020000FC695E8030086E80300231D0ECB384663
:1010300000F0A2F858B1022384F8BD3301252846F8
:101040000BB0F0BD80F8BC33FFF72EFCD5E70021D4
:10105000206800F0DCF8002315E0D900C81A8200EF
:101060002244012082F83D0082F83C30A2F8423050
:10107000002082F83F0050649064CA1A9100214415
:1010800008650133DBB26568AB42E6D3002315E0A7
:10109000D800C11A8A002244002182F8FD1182F88A
:1010A000FC3182F8FF11C2F80412C2F80812C21A09
:1010B00090002044C0F810120133DBB29D42E7D803
:1010C000254655F8107B6E460FCD0FC60FCD0FC6C7
:1010D00095E8030086E80300231D0ECB384600F098
:1010E000DDF8054660B9002384F83830012384F820
:1010F000BD33636A012B08D0206800F09BF99EE79E
:10110000022384F8BD33012599E7204600F003F857
:10111000F2E7012593E7034602680121C0F8FC13BA
:10112000002083F8F403936943F000639361536DE7
:1011300043F0805343F003035365704700230133AA
:101140000C4A934211D80269002AF8DA036943F085
:101150000103036100230133064A934207D8026961
:1011600012F0010FF7D100207047032070470320D1
:10117000704700BF400D030084B010B5044603A8BB
:1011800080E80E00089B012B1FD1A36B23F4803352
:10119000A363E36823F4840323F04003E360E3687C
:1011A00023F44013E3600F9B012B09D02046FFF787
:1011B000C5FF069B012B1BD0BDE8104004B0704753
:1011C000E36843F48013E360F0E7E36843F040032F
:1011D000E3602046FFF7B2FF0C9B23B9A36B43F4F7
:1011E0008033A363E5E7A36B23F48033A363E0E7D5
:1011F000A36843F00603A360A36843F02003A36041
:10120000DAE7836823F0010383600020704708B5A4
:10121000C36823F0C043C360012909D069B9C3681A
:1012200043F08043C360322001F046F8002008BD3F
:10123000C36843F00053C360F5E70120F7E70000FF
:10124000890141F02001016100230133054A9342E5
:1012500005D8026912F0200FF7D100207047032053
:10126000704700BF400D03001023036100230133CA
:10127000054A934205D8026912F0100FF7D10020F9
:1012800070470320704700BF400D0300D0F80038BE
:101290001943C0F8001800207047000084B02DE901
:1012A000F041044607A880E80E002546002306E02A
:1012B00003F1400204EB82020021516001330E2B46
:1012C000F6D9119BF3B9A36B23F40013A36323682E
:1012D00043F040032360236843F08003236000232E
:1012E000C4F8003E04F50066D4F80038C4F80038AD
:1012F0000C9B012B10D1099B4BB900212046FFF715
:10130000C5FF0DE0A36B43F40013A363E7E70121DE
:101310002046FFF7BBFF03E003212046FFF7B6FF9F
:1013200010212046FFF78CFF804608B14FF00108DE
:101330002046FFF799FF08B14FF001080023336101
:101340007361F3610AE0C3B94FF00060C2F80009AD
:1013500000220A614FF67F328A6001330799994271
:1013600010D905EB431202F51061D2F800090028EC
:10137000E9DB0020C2F80009EAE74FF09040C2F82C
:101380000009E5E700230AE0BBB14FF09047C2F83F
:10139000007B002202614FF67F3282600133994266
:1013A00010D905EB431202F53060D2F8007B002F14
:1013B000EADB0027C2F8007BEBE74FF00067C2F8DA
:1013C000007BE6E7336923F4807333610A9B012BCA
:1013D0001BD00022A2616FF0804262611BB9A36939
:1013E00043F01003A361A269104B1343A3610D9B4B
:1013F0001BB1A36943F00803A361119B012B0DD01E
:101400004046BDE8F04104B07047094A3263326B90
:1014100042F4803242F003023263DAE7A36943F018
:10142000804343F00403A361EAE700BF00383C8037
:101430000001800008B5D0F8043843F00203C0F87A
:101440000438032000F038FF002008BD002800F019
:101450009D8070B504464F4B1B6803F00F038B4211
:1014600009D2CBB24B4A1370136803F00F038B42BF
:1014700001D0012070BD236813F0020F17D013F0C4
:10148000040F04D0444A936843F4E0539360236804
:1014900013F0080F04D0404A936843F4604393600C
:1014A0003D4A936823F0F003A068034393600D4620
:1014B000236813F0010F32D06368012B21D09A1EEC
:1014C000012A25D9344A126812F0020F60D032493D
:1014D0008A6822F0030213438B6000F0E7FE0646A1
:1014E0002D4B9B6803F00C036268B3EB820F16D0A0
:1014F00000F0DCFE801B41F288339842F0D90320D3
:10150000B8E7254A126812F4003FE0D10120B1E7A4
:10151000214A126812F0007FD9D10120AAE71D4BA1
:101520001B6803F00F03AB4209D9EAB2194B1A70DA
:101530001B6803F00F03AB4201D001209AE7236838
:1015400013F0040F06D0144A936823F4E053E168C3
:101550000B439360236813F0080F07D00E4A93687B
:1015600023F46043216943EAC103936000F09CFACD
:10157000094B9B68C3F30313084AD35CD840084B5C
:1015800018600020FFF7D4F9002073E701207047AE
:1015900001206FE7003C024000380240D8400008BC
:1015A00004000020014B1868704700BF04000020B1
:1015B00008B5FFF7F7FF044B9B68C3F38223034A88
:1015C000D35CD84008BD00BF00380240E8400008A6
:1015D00008B5FFF7E7FF044B9B68C3F34233034AA8
:1015E000D35CD84008BD00BF00380240E840000886
:1015F0000F2303600B4B9A6802F0030242609A6863
:1016000002F0F00282609A6802F4E052C2609B68C5
:10161000DB0803F4E0530361034B1B6803F00F0383
:101620000B60704700380240003C0240F0B583B0C8
:101630000446036813F0010F0CD0964AD2F88C30A0
:1016400023F0C063816B0B43C2F88C30836B3BB3D8
:10165000002600E00026236813F0020F0BD08D4A0D
:10166000D2F88C3023F0C053E16B0B43C2F88C30BE
:10167000E36B03B90126236813F0040F14D0854AE5
:10168000D2F88C3023F44013216B0B43C2F88C301A
:10169000236BB3F5801F05D0002B7BD0002504E021
:1016A0000126D8E70126F7E70025236813F0080F85
:1016B0000ED0784AD2F88C3023F44003616B0B4390
:1016C000C2F88C30636BB3F5800F65D003B9012588
:1016D000236813F0200F61D1236813F0100F03D09B
:1016E00094F858206C4B1A60236813F0800F08D0D0
:1016F000684AD2F8943023F44003E16C0B43C2F8FB
:101700009430236813F0400F08D0624AD2F8943026
:1017100023F08063A16C0B43C2F89430236813F468
:10172000807F0DD05B4AD2F8943023F00063616D66
:101730000B43C2F89430636DB3F1006F00F09580F5
:10174000236813F4007F08D0524AD2F8943023F073
:101750008053616C0B43C2F89430236813F4806F9C
:101760000CD04C4AD2F8943023F00053216D0B4337
:10177000C2F89430236DB3F1005F78D0002E76D19B
:101780002368B3F5006F72D0002D40F02281002055
:1017900003B0F0BD012588E7012697E700230193F8
:1017A0003C4B1A6C42F080521A641B6C03F080535D
:1017B0000193019B394A136843F48073136000F06E
:1017C00075FD0746354B1B6813F4807F06D100F08A
:1017D0006DFDC01B0228F5D90320D9E72D4B1B6FE7
:1017E00013F4407312D0226C02F440729A420DD06E
:1017F000284B1A6F22F4407229490120086000200A
:1018000008601A671B6F13F0010F12D1236C03F4E9
:101810004072B2F5407F1DD01E4A936823F4F8133E
:1018200093601C490B6F226CC2F30B0213430B67CE
:1018300052E700F03BFD0746164B1B6F13F0020FFB
:10184000E4D100F033FDC01B41F288339842F3D954
:1018500003209DE70F498A6822F4F81223F07043B1
:1018600023F4407313438B60DBE7012568E70D4BDE
:1018700000221A6000F01AFD0646064B1B6813F0A2
:10188000006F11D000F012FD801B0228F5D9032053
:101890007EE700BF00380240E01147420070004080
:1018A000400E474268004742236813F0010F01D001
:1018B000A26B22B113F0020F15D0E36B9BB9774AEC
:1018C000D2F88400D2F884106368A66843EA8613CD
:1018D00000F44030034301F070610B43616943EA57
:1018E0000173C2F88430236813F0040F03D0226B15
:1018F000B2F5801F06D013F0080F20D0636BB3F54C
:10190000800F1CD1654AD2F88400D2F88410636835
:10191000A66843EA861300F440300343206943EA93
:10192000006301F0E0410B43C2F88430D2F88C3000
:1019300023F01F03A16A01390B43C2F88C302368DE
:1019400013F4806F03D0236DB3F1005F28D02368B8
:1019500013F4006F11D06368A26843EA8213E2684F
:101960005208013A43EA0243226943EA0263626988
:1019700043EA0273494AC2F88430494B01221A6093
:1019800000F094FC0646454B1B6813F0006F7FF493
:10199000FBAE00F08BFC801B0228F4D90320F7E695
:1019A0003E48D0F88430C3F301435A1CD0F8846019
:1019B0006368A16843EA8113E1684908013943EA91
:1019C000014343EA426306F0E0421343C0F8843027
:1019D000BDE7344B00221A6000F068FC05462F4B2F
:1019E0001B6813F0005F06D000F060FC401B02286B
:1019F000F5D90320CCE6236813F0040F01D0226B45
:101A000022B113F0080F1AD0636BC3B9234AD2F87E
:101A10008810A369E06943EA801301F440310B4365
:101A2000616A43EA0163C2F88830D2F88C3023F44B
:101A3000F853E16A013943EA0123C2F88C30236884
:101A400013F4807F03D0636DB3F1006F11D0154B99
:101A500001221A6000F02AFC0446104B1B6813F0A8
:101A6000005F18D100F022FC001B0228F5D90320EA
:101A70008EE60A48D0F88810A369E26943EA821327
:101A8000226A5208013A43EA024301F070621343AA
:101A9000C0F88830DBE700207AE600BF003802405B
:101AA00068004742700047422DE9F04B5C4B9B6851
:101AB00003F00C03082B07D00C2B5BD0042B00F099
:101AC000AD805848BDE8F08B554B5A6802F03F0294
:101AD0005B6813F4800F2AD0514B5B68C3F3881303
:101AE0001E4600275C010025E41A65EB0705A901E5
:101AF00041EA9461A001001B61EB0501CB0043EAC0
:101B00005073C400A01943EB07014B0243EAD053C2
:101B10004402204619460023FEF77AFB404B5B68DF
:101B2000C3F3014301335B00B0FBF3F0CAE73C4B66
:101B30005B68C3F388131E4600275C010025E41A86
:101B400065EB0705A90141EA9461A001001B61EB67
:101B50000501CB0043EA5073C400A01943EB070111
:101B60008B0243EA90538402204619460023FEF775
:101B70004FFBD3E72A4B5A6802F03F025B6813F42D
:101B8000800F28D0264B5B68C3F388131E460027BE
:101B90005C010025E41A65EB0705A90141EA94619F
:101BA000A001001B61EB0501CB0043EA5073C400A8
:101BB000A01943EB07014B0243EAD05344022046ED
:101BC00019460023FEF724FB154B5B68C3F3027331
:101BD000B0FBF3F076E7124B5B68C3F388131E4645
:101BE00000275C010025E41A65EB0705A90141EA1D
:101BF0009461A001001B61EB0501CB0043EA507327
:101C0000C400A01943EB07018B0243EA90538402FE
:101C1000204619460023FEF7FBFAD5E7024851E7B4
:101C2000003802400024F40000127A0070B582B03F
:101C30000446036813F0010F41D0A64B9B6803F0E4
:101C40000C03042B32D0A34B9B6803F00C03082B2E
:101C500027D0A04B9B6803F00C030C2B59D0636872
:101C6000B3F5803F5BD0B3F5A02F5ED0994B1A68D7
:101C700022F480321A601A6822F480221A606368A3
:101C8000002B5CD000F012FB0546924B1B6813F44E
:101C9000003F14D100F00AFB401B6428F5D9032053
:101CA0009DE18C4B5B6813F4800FD2D0894B1B688D
:101CB00013F4003F03D06368002B00F08D8123688C
:101CC00013F0020F67D0834B9B6813F00C0F4AD0C0
:101CD000804B9B6803F00C03082B3FD07D4B9B6827
:101CE00003F00C030C2B48D0E368002B74D07A4B24
:101CF00001221A6000F0DAFA0546764B1B6813F0F1
:101D0000020F60D100F0D2FA401B0228F5D903205F
:101D100065E1704B5B6813F4800FA0D0C6E76D4A95
:101D2000136843F480331360A9E76A4B1A6842F4DE
:101D300080221A601A6842F480321A609FE700F02D
:101D4000B5FA0546634B1B6813F4003FB7D000F0AB
:101D5000ADFA401B6428F5D9032040E15D4B5B6878
:101D600013F4800FBAD15B4B1B6813F0020F0AD03B
:101D7000E368012B07D0012031E1564B5B6813F477
:101D8000800FB1D1EFE7534A136823F0F8032169BC
:101D900043EAC1031360236813F0080F40D063695E
:101DA00063B34E4B01221A6000F080FA0546494B9E
:101DB0005B6F13F0020F33D100F078FA401B02285A
:101DC000F5D903200BE1434A136823F0F803216996
:101DD00043EAC1031360DEE73F4B00221A6000F0C4
:101DE00065FA05463B4B1B6813F0020FD3D000F099
:101DF0005DFA401B0228F5D90320F0E0374B0022A2
:101E00001A6000F053FA0546324B5B6F13F0020F75
:101E100006D000F04BFA401B0228F5D90320DEE083
:101E2000236813F0040F79D02A4B1B6C13F0805FEA
:101E300033D100230193274B1A6C42F080521A646D
:101E40001B6C03F080530193019B0125244B1B68FD
:101E500013F4807F23D0A368012B34D0052B41D00D
:101E60001C4B1A6F22F001021A671A6F22F004024B
:101E70001A67A368002B3FD000F018FA0646154BEE
:101E80001B6F13F0020F48D100F010FA801B41F2D3
:101E900088339842F3D90320A1E00025D6E7104A01
:101EA000136843F48073136000F000FA06460C4B8D
:101EB0001B6813F4807FCED100F0F8F9801B022854
:101EC000F5D903208BE0034A136F43F00103136736
:101ED000CFE700BF0038024000004742800E474273
:101EE00000700040404B1A6F42F004021A671A6FEC
:101EF00042F001021A67BCE700F0D8F906463A4BF7
:101F00001B6F13F0020F08D000F0D0F9801B41F2D4
:101F100088339842F3D9032061E0E5B9A369002B27
:101F20005CD0314A926802F00C02082A59D0022B88
:101F300017D02E4B00221A6000F0B8F904462A4B45
:101F40001B6813F0007F45D000F0B0F9001B022899
:101F5000F5D9032043E0244A136C23F08053136423
:101F6000DCE7224B00221A6000F0A0F905461E4B68
:101F70001B6813F0007F06D000F098F9401B022880
:101F8000F5D903202BE0E369226A1343626A43EA2E
:101F90008213A26A5208013A43EA0243E26A43EA20
:101FA0000263226B43EA02730F4A53600F4B012214
:101FB0001A6000F07BF904460B4B1B6813F0007F9E
:101FC00006D100F073F9001B0228F5D9032006E0C2
:101FD000002004E0002002E0012000E0002002B028
:101FE00070BD0120FBE700BF00380240600047429F
:101FF00000230F2B00F2D180F0B482B039E006222A
:1020000000E00022B2403A430234644E46F82420F5
:10201000634A1468EA4302EA04064F6817F4803FF3
:1020200001D045EA04065E4C2660646802EA0406B4
:102030004F6817F4003F01D045EA0406584C66602B
:10204000A46802EA04064F6817F4801F01D045EA2D
:102050000406534CA660E46822404E6816F4001F44
:1020600001D045EA04024E4CE26001330F2B00F22E
:10207000918001229A400C6804EA0205AA42F4D138
:102080004C68022C01D0122C10D1DE08083650F812
:1020900026C003F00704A7000F24BC402CEA040C60
:1020A0000C69BC4044EA0C0440F8264004685F0018
:1020B0000326BE40F64306EA040C4C6804F0030411
:1020C000BC4044EA0C0404604C6804F1FF3CBCF1E1
:1020D000010F03D9112C01D0122C10D1846806EA0B
:1020E000040CCC68BC4044EA0C048460446824EAD4
:1020F00002024C68C4F300149C4014434460C2685C
:1021000016408A68BA403243C2604A6812F0805F63
:10211000ABD000220192234A546C44F480445464AE
:10212000526C02F480420192019A9C08A61C1B4A40
:1021300052F8267003F0030296000F22B24027EAFD
:102140000207194A90423FF45CAF02F58062904268
:1021500016D002F58062904214D002F5806290425F
:1021600012D002F58062904210D002F58062904257
:102170000ED002F5806290423FF441AF072241E762
:1021800001223FE702223DE703223BE7042239E731
:10219000052237E702B0F0BC7047704700380140B5
:1021A000003C0140003802400000024012B909041E
:1021B0008161704781617047074AD36823F4E06307
:1021C0001B041B0C000200F4E060184340F0BF60E9
:1021D00040F40030D060704700ED00E030B4174BA1
:1021E000DB68C3F30223C3F10704042C28BF0424D3
:1021F0001D1D062D18D9033B4FF0FF3505FA04F4D9
:1022000021EA0401994005FA03F322EA0303194382
:1022100000280BDB0901C9B200F1604000F5614004
:1022200080F8001330BC70470023E5E700F00F0092
:102230000901C9B2024B1954F4E700BF00ED00E0F8
:1022400014ED00E0002807DB00F01F024009012325
:102250009340024A42F82030704700BF00E100E09E
:1022600008B50B4B1A6842F400721A601A6842F4FF
:1022700080621A601A6842F480721A600320FFF7C5
:102280009BFF0020FEF754FBFEF7B2FA002008BDCA
:10229000003C0240034A1168034B1B780B44136057
:1022A000704700BFBC4D002000000020014B1868A3
:1022B000704700BFBC4D002038B50446FFF7F6FF5D
:1022C0000546B4F1FF3F02D0044B1B781C44FFF7D6
:1022D000EDFF401BA042FAD338BD00BF0000002034
:1022E0000F49D1F8883043F47003C1F888300D4BA2
:1022F0001A6842F001021A60002098601A6822F001
:10230000847222F480321A60074A5A601A6822F4F2
:1023100080221A60D8604FF000638B60704700BF66
:1023200000ED00E0003802401030002400F1080306
:1023300043604FF0FF328260C3600361002303609B
:10234000704700230361704743684B609A688A6056
:102350009A685160996008610368013303607047AF
:1023600030B40D68B5F1FF3F02D000F1080202E081
:10237000026904E01A4653681C68AC42FAD95368F3
:102380004B6099608A6051600861036801330360A3
:1023900030BC704703694268816891608268416817
:1023A00051605A68824206D0002202611A68013ADE
:1023B0001A601868704782685A60F5E710B50446DD
:1023C00001F0B8FCA26BE36B9A4204D0002401F048
:1023D000D3FC204610BD0124F9E710B5044601F0F6
:1023E000A9FCA36B23B1002401F0C6FC204610BD5C
:1023F0000124F9E770B504461646856B026C5AB99C
:1024000003681BB100200135A56370BD406800F072
:10241000B3FF00236360F6E76EB9806801F030FE19
:10242000226CA3681344A3606268934219D32368A3
:10243000A3600020E7E7C06801F022FE226C524250
:10244000E3681344E36021688B4202D263681A4454
:10245000E260022E01D00020D5E725B1013D002029
:10246000D1E70020CFE70020CDE7026C72B110B5B4
:10247000C3681344C3604468A34201D30368C360C4
:102480000C46C168204601F0FBFD10BD704738B511
:10249000054601F04FFC95F8454064B203E000F0BA
:1024A00055FF013C64B2002C08DD6B6A33B105F1C5
:1024B000240000F0B9FE0028F3D0F0E7FF2385F8F0
:1024C000453001F059FC01F035FC95F8444064B208
:1024D00003E000F03BFF013C64B2002C08DD2B69F7
:1024E00033B105F1100000F09FFE0028F3D0F0E7B3
:1024F000FF2385F8443001F03FFC38BD38B540B9C2
:102500004FF0500383F31188BFF36F8FBFF34F8FEA
:10251000FEE704460D4601F00DFC2168E26B236CDA
:1025200003FB021060600020A063A160013A02FB7F
:102530000313E360FF2384F8443084F84530A5B9E1
:1025400023691BB901F018FC012038BD04F110000B
:1025500000F06AFE0028F5D0084B4FF080521A6058
:10256000BFF34F8FBFF36F8FECE704F11000FFF75D
:10257000DDFE04F12400FFF7D9FEE3E704ED00E0FF
:1025800038B51D46049C0B4649B12260E0632364C4
:1025900001212046FFF7B2FF84F84C5038BD24607B
:1025A000F4E740B94FF0500383F31188BFF36F8F06
:1025B000BFF34F8FFEE710B584B0044653B192B11C
:1025C00089B94FF0500383F31188BFF36F8FBFF3C6
:1025D0004F8FFEE74FF0500383F31188BFF36F8FE7
:1025E000BFF34F8FFEE74AB941B14FF0500383F379
:1025F0001188BFF36F8FBFF34F8FFEE7502003901A
:102600000398502808D04FF0500383F31188BFF38C
:102610006F8FBFF34F8FFEE720461C46012384F8DF
:10262000463000949DF81830FFF7AAFF204604B00A
:1026300010BD0000F0B585B0019260B1044699B9B3
:10264000026C8AB14FF0500383F31188BFF36F8F90
:10265000BFF34F8FFEE74FF0500383F31188BFF3B2
:102660006F8FBFF34F8FFEE7022B0BD1E26B012A76
:1026700008D04FF0500383F31188BFF36F8FBFF37F
:102680004F8FFEE71E460F4600F066FE50B9019BD5
:1026900053B14FF0500383F31188BFF36F8FBFF333
:1026A0004F8FFEE700253AE0002538E032463946F4
:1026B0002046FFF79FFE636A4BB9A8B13B4B4FF032
:1026C00080521A60BFF34F8FBFF36F8F0CE004F19D
:1026D000240000F0A9FD38B1344B4FF080521A604D
:1026E000BFF34F8FBFF36F8F01F046FB012005B0A2
:1026F000F0BD01F041FB0020F9E702A800F0DAFD8F
:10270000012519E0002384F8443021E0002384F8F7
:10271000453023E02046FFF7BAFE00F065FC01F0EB
:1027200009FBA26BE36B9A42C0D3022EBED0019B81
:10273000002BDED0002DE0D001F01EFB00F0BAFB34
:1027400001F0F8FA94F844305BB2B3F1FF3FD9D00E
:1027500094F845305BB2B3F1FF3FD7D001F00CFBEA
:1027600001A902A800F0B2FDC8B92046FFF726FE75
:102770000028CFD0019904F1100000F021FD20467F
:10278000FFF785FE00F030FC0028C8D1074B4FF062
:1027900080521A60BFF34F8FBFF36F8FBFE72046A1
:1027A000FFF775FE00F020FC0020A0E704ED00E03C
:1027B0002DE9F84360B1044699B9006C88B14FF037
:1027C000500383F31188BFF36F8FBFF34F8FFEE782
:1027D0004FF0500383F31188BFF36F8FBFF34F8F18
:1027E000FEE7022B0BD1E06B012808D04FF050031D
:1027F00083F31188BFF36F8FBFF34F8FFEE71F4640
:102800009046894601F0C0FBEFF311864FF050036C
:1028100083F31188BFF36F8FBFF34F8FA26BE36B0E
:102820009A4203D3022F01D000200FE094F84550C4
:102830006DB23A4649462046FFF7DCFDB5F1FF3F51
:1028400008D06B1C5BB284F84530012086F31188F8
:10285000BDE8F883636A5BB104F1240000F0E4FC96
:1028600040B1B8F1000F07D00120C8F80000EDE733
:102870000120EBE70120E9E70120E7E7F0B585B0AB
:10288000019260B1044699B9036C8BB14FF05003CB
:1028900083F31188BFF36F8FBFF34F8FFEE74FF0C5
:1028A000500383F31188BFF36F8FBFF34F8FFEE7A1
:1028B0000F4600F051FD50B9019B53B14FF050034A
:1028C00083F31188BFF36F8FBFF34F8FFEE70026AE
:1028D0003EE000263CE039462046FFF7C6FD013DBC
:1028E000A563236923B901F047FA012005B0F0BDC3
:1028F00004F1100000F098FC0028F4D0344B4FF0A5
:1029000080521A60BFF34F8FBFF36F8FEBE701F078
:1029100033FA0020EAE702A800F0CCFC012621E00F
:10292000002384F8443029E0002384F845302BE06C
:102930002046FFF7ACFD00F057FB09E02046FFF70B
:10294000A6FD00F051FB2046FFF747FD00283DD1D2
:1029500001F0F0F9A56B002DBDD1019B002BD6D065
:10296000002ED8D001F008FA00F0A4FA01F0E2F944
:1029700094F844305BB2B3F1FF3FD1D094F84530C6
:102980005BB2B3F1FF3FCFD001F0F6F901A902A885
:1029900000F09CFC0028D1D12046FFF71EFD002846
:1029A000C6D0019904F1240000F00AFC2046FFF78C
:1029B0006EFD00F019FB0028CAD1054B4FF0805284
:1029C0001A60BFF34F8FBFF36F8FC1E700208DE711
:1029D00004ED00E00023072B0CD8074A52F83320FF
:1029E0000AB10133F7E7044A42F8331002EBC3039C
:1029F00058607047704700BFC04D002070B5044656
:102A00000D46164601F096F994F844305BB2B3F1E6
:102A1000FF3F0DD094F845305BB2B3F1FF3F0BD0D0
:102A200001F0AAF9A36B5BB12046FFF730FD70BD42
:102A3000002384F84430EDE7002384F84530EFE7C5
:102A40003246294604F1240000F0D2FBECE70000F6
:102A5000084B1B681B683BB1064B1B68DB68DB68D7
:102A60005A68054B1A607047034B4FF0FF321A60EB
:102A7000704700BF2C000020D40400202DE9F0474F
:102A800081460D4617469A46089EDDF824800A9C2A
:102A90009200A521206B01F0FEFA236B07F1804222
:102AA000013A03EB820727F0070700230F2B07D813
:102AB000E95CE21882F83410EA5C0AB10133F5E708
:102AC000002384F84330372E00D93726E662E664C7
:102AD00000252565201DFFF734FC04F11800FFF7E1
:102AE00030FC2461C6F13806A6616462656584F82D
:102AF000585052464946384601F0EEF82060B8F189
:102B0000000F01D0C8F80040BDE8F08738B50024B8
:102B100007E004EB840293000E481844FFF706FC1C
:102B20000134372CF5D90C4D2846FFF7FFFB0B4C31
:102B30002046FFF7FBFB0A48FFF7F8FB0948FFF7C1
:102B4000F5FB0948FFF7F2FB084B1D60084B1C60C2
:102B500038BD00BF34000020AC040020C0040020B9
:102B6000DC04002008050020F40400202C000020D4
:102B70003000002010B5044601F0DCF8214A13684B
:102B800001331360204B1B685BB1204B1B686BB992
:102B90001D4B1B68DA6AE36A9A4207D81A4B1C601D
:102BA00004E0194B1C601368012B27D0184A1368E6
:102BB000013313606364E36A164A1268934201D9D1
:102BC000144A136003EB83039A00211D124810443A
:102BD000FFF7BAFB01F0D0F80C4B1B686BB10A4B46
:102BE0001B68DA6AE36A9A4207D20C4B4FF08052B4
:102BF0001A60BFF34F8FBFF36F8F10BDFFF786FFD3
:102C0000D4E700BF9404002028000020F004002036
:102C1000A4040020A80400203400002004ED00E0FB
:102C200010B5044690F8593033B9006B00F0DEFF60
:102C3000204600F0DBFF10BD012B0AD0022BFAD09A
:102C40004FF0500383F31188BFF36F8FBFF34F8FA3
:102C5000FEE700F0CBFFEEE70F4B1B68D3B110B5DA
:102C600001F068F80D4BDB68DC68201DFFF792FB74
:102C70000B4A1368013B1360074A1368013B13605A
:102C800001F07AF82046FFF7CBFF034B1B68002BBF
:102C9000E6D110BD704700BF980400200805002051
:102CA0009404002008B5FFF7D7FF064B1B68012BE3
:102CB000F9D9054B4FF080521A60BFF34F8FBFF325
:102CC0006F8FF0E73400002004ED00E070B504469B
:102CD0000E46174B1D68174B18680430FFF75AFB58
:102CE000B4F1FF3F13D02C44124B1B685C60A5422B
:102CF00016D8114B18680F4B19680431FFF730FBD9
:102D00000E4B1B68A34212D90C4B1C600FE0002E27
:102D1000E9D0084B196804310948FFF715FB06E0B4
:102D2000084B1868034B19680431FFF719FB70BD95
:102D30001C050020280000202C000020D4040020C6
:102D4000F40400203000002070B586B00B9D0C9C70
:102D500045B94FF0500383F31188BFF36F8FBFF372
:102D60004F8FFEE744B94FF0500383F31188BFF350
:102D70006F8FBFF34F8FFEE75C260496049E5C2E98
:102D800008D04FF0500383F31188BFF36F8FBFF368
:102D90004F8FFEE72563022584F8595000250395DF
:102DA000029405AD01950A9D0095FFF767FE204648
:102DB000FFF7E0FE059806B070BD2DE9F04385B041
:102DC0000746884615469946900000F08BFE08B3EA
:102DD00006465C2000F086FE0446B8B10663E4B106
:102DE000002384F85930039302940D9B01930C9BAC
:102DF00000934B462A4641463846FFF73FFE2046A1
:102E0000FFF7B8FE012005B0BDE8F083304600F0C2
:102E1000EDFEE4E74FF0FF30F5E74FF0FF30F2E76B
:102E200010B588B000240594069407AA06A905A841
:102E300000F0E2FD059B0293069B0193009423465C
:102E4000079A17491748FFF77FFF40B100F048FB8A
:102E5000012806D0B0F1FF3F18D008B010BD002007
:102E6000F6E74FF0500383F31188BFF36F8FBFF382
:102E70004F8F0D4B4FF0FF321A600C4B01221A603E
:102E80000B4B00221A6000F0F7FFE6E74FF050030B
:102E900083F31188BFF36F8FBFF34F8FFEE700BF3F
:102EA000F0400008A52C0008D4040020F004002005
:102EB0001C050020024A136801331360704700BFED
:102EC000A0040020014B1868704700BF1C050020BB
:102ED000F8B53A4B1B68002B64D1394B1D6801359E
:102EE0001D60C5B9374B1B681B6843B14FF05003D9
:102EF00083F31188BFF36F8FBFF34F8FFEE7314A23
:102F00001168314B186810601960304A136801333A
:102F10001360FFF79DFD2E4B1B68AB4238D9002490
:102F20002C4B1B68DB6A03EB83039A002A4B9B58EC
:102F3000012B3CD901243AE00124224B1B681B6879
:102F400043B3204B1B68DB68DE6873689D4226D361
:102F5000371D3846FFF71EFAB36A1BB106F1180099
:102F6000FFF718FAF36A1D4A1268934201D91B4A07
:102F7000136003EB83039A00394617481044FFF7A8
:102F8000E3F9F26A134B1B68DB6A9A42D4D2D4E7A6
:102F90000024D2E70E4B4FF0FF321A60C0E70C4A14
:102FA0001360BDE70E4A13680133136000240D4B14
:102FB0001B6803B101242046F8BD00BFA004002017
:102FC0001C0500202C00002030000020D804002028
:102FD000D40400202800002034000020A804002091
:102FE0009C0400202005002038B5334B1B6843B9F2
:102FF0004FF0500383F31188BFF36F8FBFF34F8FF0
:10300000FEE700F097FE2C4B1A68013A1A601B6825
:10301000002B4DD1294B1B6823B9002400F0ACFED6
:10302000204638BD0024264B1B681BB3244BDB68AD
:10303000DC6804F11800FFF7ADF9251D2846FFF7FD
:10304000A9F9E36A1F4A1268934201D91D4A136025
:1030500003EB83039A0029461B481044FFF774F9D9
:10306000E26A1A4B1B68DB6A9A42DCD3184B0122D6
:103070001A60D8E70CB1FFF7EBFC164B1C6854B193
:10308000FFF726FF10B1124B01221A60013CF7D165
:10309000104B00221A600E4B1B685BB10E4B4FF0B9
:1030A00080521A60BFF34F8FBFF36F8F0124B5E7D3
:1030B0000024B3E70024B1E7A0040020940400201A
:1030C000DC040020A8040020340000202800002098
:1030D000200500209C04002004ED00E010B5A8B1FC
:1030E00004460F4B1B6843B14FF0500383F3118824
:1030F000BFF36F8FBFF34F8FFEE7FFF7DBFE0021BB
:103100002046FFF7E3FDFFF76FFF38B9054B4FF09F
:1031100080521A60BFF34F8FBFF36F8F10BD00BF97
:10312000A004002004ED00E0204B1B681BB1204BE5
:1031300001221A6070471E4B00221A601D4B1B684B
:1031400003EB83018A001C498A585AB90BB1013B31
:10315000F6E74FF0500383F31188BFF36F8FBFF38F
:103160004F8FFEE710B408469A00D418A10001441E
:103170004C6864684C601A449100083108448442E9
:103180000DD003EB830291000B4A0A445268D168C8
:103190000A4A1160074A13605DF8044B7047616882
:1031A0000548142202FB03025160EAE7A004002054
:1031B00020050020A8040020340000202800002062
:1031C00040B94FF0500383F31188BFF36F8FBFF303
:1031D0004F8FFEE710B50C46044B19681831FFF706
:1031E000BFF801212046FFF771FD10BD2800002027
:1031F00038B540B94FF0500383F31188BFF36F8F98
:10320000BFF34F8FFEE70C461546064A116818318A
:10321000FFF79AF80DB14FF0FF3429462046FFF72B
:1032200055FD38BD2800002038B5C368DC6844B9B6
:103230004FF0500383F31188BFF36F8FBFF34F8FAD
:10324000FEE704F118052846FFF7A4F8134B1B68A6
:10325000E3B9251D2846FFF79DF8E36A104A126876
:10326000934201D90E4A136003EB83039A00294667
:103270000C481044FFF768F8E26A0B4B1B68DB6AE6
:103280009A4208D90120094B186038BD29460848E0
:10329000FFF75AF8F0E70020F7E700BFA00400208E
:1032A000A804002034000020280000202005002071
:1032B000DC040020034B1B680360034B1B68436066
:1032C000704700BFD80400201C050020F8B550B19D
:1032D000054689B94FF0500383F31188BFF36F8F10
:1032E000BFF34F8FFEE74FF0500383F31188BFF316
:1032F0006F8FBFF34F8FFEE70C4600F01BFD114BA5
:10330000196868680A1A2368B3F1FF3F16D02F685E
:103310000D4E3668B74201D0884211D9934203D886
:1033200000232360012405E09B1A23602846FFF751
:10333000C1FF002400F020FD2046F8BD0024F9E77D
:103340000124F7E71C050020D8040020014B0122CE
:103350001A60704720050020054B1B6833B1054BF0
:103360001B680BB100207047022070470120704796
:10337000F0040020A0040020002838D038B504460E
:103380001E4A1268824208D04FF0500383F311881E
:10339000BFF36F8FBFF34F8FFEE7026D42B94FF05F
:1033A000500383F31188BFF36F8FBFF34F8FFEE796
:1033B000013A0265C06AE16C88421AD0DAB9251D6B
:1033C0002846FEF7E7FFE36CE362C3F13802A2612F
:1033D0000B4A1268934201D9094A13602946094AE7
:1033E000142000FB0320FEF7AFFF012038BD0020B2
:1033F00070470020FAE70020F8E700BF280000200F
:10340000A804002034000020064B1A681368B3FAA1
:1034100083F35B09036013B9D36818687047002011
:10342000704700BF2405002008B54160006191424B
:103430000CD8D21A83699A4201D3012010E0011DF1
:10344000094B1868FEF78CFF002009E09A4201D270
:10345000994206D2011D054B1868FEF781FF002036
:1034600008BD0120FCE700BF28050020240500203E
:1034700030B583B000F05EFC114B1B681BB100F04F
:103480007BFC03B030BD0F4D2846FEF74FFF0E4CBE
:103490002046FEF74BFF0D4B1D600D4B1C600023BB
:1034A00000930C4B0C4A10210A20FFF77AF8044BCA
:1034B00018600028E3D00949FFF78CFADFE700BF66
:1034C00048060020CC050020E0050020240500204F
:1034D00028050020F80500202C050020F8400008F1
:1034E00010B588B0FFF7C4FF124B1B68CBB10024A6
:1034F0000594069407AA06A905A800F089FA059B79
:103500000293069B0193022300932346079A0A49DC
:103510000A48FFF719FC0A4B186010B1012008B0E7
:1035200010BD4FF0500383F31188BFF36F8FBFF3CB
:103530004F8FFEE7480600200041000825380008AC
:103540004C060020C8B130B585B015460446174A70
:10355000106840B31A4600910195029405291DDCBC
:10356000FFF7FAFE022811D000231A4669460F48D9
:103570000068FFF75FF805B030BD4FF0500383F3EC
:103580001188BFF36F8FBFF34F8FFEE70023089AB8
:10359000694606480068FFF74DF8ECE700236946E6
:1035A000FFF706F9E7E70020E5E700BF480600203F
:1035B00070B582B01A4B1B681A6852B3DB681E687C
:1035C000DC68251D2846FEF7E5FE636A204698471D
:1035D000E369012BEED1A36933449E4207D26360B5
:1035E000246129460E4B1868FEF7BAFEE2E7002177
:1035F00000910B4632462046FFF7A4FF0028D9D1A0
:103600004FF0500383F31188BFF36F8FBFF34F8FD9
:10361000FEE7044A106802490860136002B070BDFA
:10362000240500202805002038B50546FFF74AFC90
:103630000446074B1B68834205D800232B60044BCC
:103640001C60204638BDFFF7B3FF01232B60F6E76F
:10365000F405002070B582B005460E46144B1B6879
:10366000DB68DC68201DFEF795FEE369012B04D0C2
:10367000636A2046984702B070BDA1692B46324666
:1036800029442046FFF7D0FE0028F1D00021009108
:103690000B462A462046FFF755FF0028E8D14FF099
:1036A000500383F31188BFF36F8FBFF34F8FFEE793
:1036B0002405002070B582B006460C46FFF7FAFBE1
:1036C00001A8FFF7B1FF019B1BBB05460CB9B04237
:1036D00018D22CB1114B1B681C68B4FA84F464092D
:1036E0002246711B0E4B1868FFF788F9FFF77CFC28
:1036F00088B90C4B4FF080521A60BFF34F8FBFF365
:103700006F8F08E0FFF770FC29463046FFF7A2FFF5
:1037100001E0FFF769FC02B070BD00BF2805002082
:103720004806002004ED00E030B589B002E0049BBB
:10373000002B0FDA002204A9394B1868FFF79EF816
:1037400000286AD0049B002BF1DA07990698059BA4
:103750009847ECE7069C636913B1201DFEF71AFE3B
:1037600003A8FFF761FF049B092BE3D801A252F8DD
:1037700023F000BF9D3700089D3700089D370008E3
:1037800035370008E53700080B3800089D3700087A
:103790009D37000835370008E53700080599A56909
:1037A0000B46024629442046FFF73EFE0028C1D0C2
:1037B000636A20469847E369012BBBD1A2690021C7
:1037C00000910B46059802442046FFF7BBFE0028F7
:1037D000B0D14FF0500383F31188BFF36F8FBFF365
:1037E0004F8FFEE70599A16131B1034602460144BE
:1037F0002046FFF719FE9DE74FF0500383F3118831
:10380000BFF36F8FBFF34F8FFEE794F82C30002B80
:1038100090D1204600F0EAF98CE709B030BD00BF36
:103820004806002000B583B001A8FFF7EDFD01991F
:10383000FFF740FFFFF778FFF6E70000EFF305839F
:103840009BB9EFF310839BB90C4B1B68022B05D07F
:103850008BB90A4B01221A6000207047EFF31182E6
:10386000002AF5D06FF0050070476FF00500704733
:103870006FF0050070474FF0FF307047AC08002034
:1038800008B5EFF30583B3B9EFF31083B3B90E4B6B
:103890001B68022B08D0012B13D10B4B02221A609C
:1038A000FFF7BEFA002008BDEFF31182002AF2D024
:1038B0006FF00500F7E76FF00500F4E76FF0050023
:1038C000F1E74FF0FF30EEE7AC080020F0B587B02D
:1038D00000240494EFF305844CBBEFF3108333BB57
:1038E000334B1B68022B25D008B300238DF817300B
:1038F00092B316681EB3946904B91824631E372B5B
:1039000052D8536813F0010F50D15569D5B14FEA21
:10391000950C93682BB1D7685B2F02D9176907B153
:103920000DBB93B14FF0FF35012D23D075B3049833
:1039300007B0F0BDEFF31183002BF8D1D4E70DF100
:103940001706D8E74FF0800CE3E7D3686BB913692B
:1039500073B14FF0FF35E7E7002518244FF0800CD6
:103960000DF11706E0E70125DEE74FF0FF35DBE755
:103970000025D9E7136992680292019300940B46DF
:1039800062463146FFF7E0F90490D0E704AA0192BD
:1039900000940B461FFA8CF23146FFF70EFA01280D
:1039A000C5D000230493C2E70020C1E70020BFE791
:1039B000AC08002008B5EFF30583A3B9EFF310833B
:1039C000A3B90C4B1B68022B02D040B9002008BDE4
:1039D000EFF31183002BF8D06FF00500F7E7FFF746
:1039E0007DFB0020F3E76FF00500F0E76FF00500C6
:1039F000EDE700BFAC080020034B0360034B0B60F6
:103A000080231360704700BF50080020500600203C
:103A1000034B0360034B0B604FF4807313607047DC
:103A2000B00C0020B0080020124A12F0070F1ED080
:103A3000D11D21F00701C1F5705313440A460E4809
:103A40000260002141601344083B23F007030B4848
:103A5000036059601960991A51601360084B19602E
:103A6000084B1960084B4FF000421A6070474FF442
:103A70007053E4E7100D00201C4900200C0D0020BD
:103A800018490020144900201049002010B4134B9D
:103A90001A6882421BD359685C18844203D140687B
:103AA00001445960184641684418A24213D10C4C95
:103AB0002468A2420DD05268114441601A6812680D
:103AC0000260984200D018605DF8044B70471346BE
:103AD000DEE70460F5E70260F3E700BF1C49002061
:103AE0000C0D002070B50446FFF7E4F93A4B1B6853
:103AF000BBB13A4B1B681C4263D1ACB1083414F023
:103B0000070F11D024F00704083404F007035BB159
:103B10004FF0500383F31188BFF36F8FBFF34F8FC4
:103B2000FEE7FFF781FFE4E7002C4CD02C4B1B682D
:103B3000A3424AD32B4B1D6801E02B4615466A6809
:103B4000A24202D22A68002AF7D1234A1268AA4266
:103B50003DD01E6808362A681A606B681B1B102B44
:103B600010D9281910F0070F08D04FF0500383F335
:103B70001188BFF36F8FBFF34F8FFEE743606C6018
:103B8000FFF784FF6A6816490B689B1A0B60164999
:103B900009688B4201D214490B60104B1B68134318
:103BA0006B6000232B60FFF71FFA16F0070F10D091
:103BB0004FF0500383F31188BFF36F8FBFF34F8F24
:103BC000FEE70026EFE70026EDE70026EBE70026FC
:103BD000E9E7304670BD00BF0C0D00201049002001
:103BE000144900201C4900201849002080B338B532
:103BF0000446A0F1080550F8042C164909680A4249
:103C000008D14FF0500383F31188BFF36F8FBFF3D8
:103C10004F8FFEE750F8080C40B14FF0500383F38C
:103C20001188BFF36F8FBFF34F8FFEE722EA0102C7
:103C300044F8042CFFF73EF954F8041C064A1368B4
:103C40000B4413602846FFF721FFFFF7CDF938BD7D
:103C5000704700BF104900201449002082B00023A3
:103C600001930D4B1B68B3F1FF3F08D04FF0500399
:103C700083F31188BFF36F8FBFF34F8FFEE74FF0D1
:103C8000500383F31188BFF36F8FBFF34F8F019BF6
:103C9000002BFCD002B070470800002008480068E4
:103CA000006880F308884FF0000080F3148862B643
:103CB00061B6BFF34F8FBFF36F8F00DF00BF00000F
:103CC00008ED00E0DFF80C00016841F470010160CC
:103CD0007047000088ED00E04FF0807340F8043C2E
:103CE00021F0010140F8081C054B40F80C3C40F85D
:103CF000202C6FF0020340F8243C4438704700BF8A
:103D00005D3C000800000000000000000000000012
:103D1000074B19680868B0E8F04F80F30988BFF3D3
:103D20006F8F4FF0000080F311887047AFF3008071
:103D3000280000204FF0500383F31188BFF36F8FEA
:103D4000BFF34F8F0A4A136801331360012B00D071
:103D50007047084B1B6813F0FF0FF9D04FF050036A
:103D600083F31188BFF36F8FBFF34F8FFEE700BF60
:103D70000800002004ED00E0094B1B6843B94FF038
:103D8000500383F31188BFF36F8FBFF34F8FFEE7AC
:103D9000013B034A13600BB983F31188704700BFDE
:103DA00008000020000000000000000000000000EB
:103DB000EFF30980BFF36F8F154B1A681EF0100FD9
:103DC00008BF20ED108A20E9F04F10602DE90900AE
:103DD0004FF0500080F31188BFF34F8FBFF36F8F08
:103DE000FFF7A2F94FF0000080F3118809BC1968B1
:103DF0000868B0E8F04F1EF0100F08BFB0EC108A52
:103E000080F30988BFF36F8F704700BFAFF3008066
:103E10002800002008B54FF0500383F31188BFF34A
:103E20006F8FBFF34F8FFFF753F818B1034B4FF06D
:103E300080521A60002383F3118808BD04ED00E06E
:103E4000084A0023136008490B60084B1B680849A7
:103E5000A1FB03139B09013B06490B600723136079
:103E6000704700BF10E000E018E000E00400002010
:103E7000D34D621014E000E03A4B1A683A4B9A4274
:103E80000DD0384B1A68394B9A4211D14FF050037C
:103E900083F31188BFF36F8FBFF34F8FFEE74FF0AF
:103EA000500383F31188BFF36F8FBFF34F8FFEE78B
:103EB00010B582B02E4B1A78D2B20192FF221A703E
:103EC0001B78DBB28DF803309DF8033003F050030C
:103ED000284A1370284B07221A6009E0264A136803
:103EE000013B13609DF803305B00DBB28DF80330BB
:103EF0009DF8033013F0800FF0D11F4B1B68032B8C
:103F000008D04FF0500383F31188BFF36F8FBFF3D6
:103F10004F8FFEE71B0203F4E063174A1360019B17
:103F2000DBB2134A1370154B1A6842F470021A6020
:103F30001A6842F070421A60FFF782FF0024104BAB
:103F40001C60FFF7BFFE0F4A136843F04043136045
:103F5000FFF7A4FEFFF7E8F8FFF780FE204602B067
:103F600010BD00BF00ED00E071C20F4170C20F41F3
:103F700000E400E0244900202849002020ED00E072
:103F80000800002034EF00E0EFF305830F2B0FD97A
:103F9000104A9B5CDBB2104A12789A4208D94FF063
:103FA000500383F31188BFF36F8FBFF34F8FFEE78A
:103FB0000A4B1B6803F4E063094A1268934208D96C
:103FC0004FF0500383F31188BFF36F8FBFF34F8F10
:103FD000FEE77047F0E300E0244900200CED00E02C
:103FE00028490020DFF834D0002103E00C4B5B5857
:103FF000435004310B480C4B42189A42F6D30B4AFB
:1040000002E0002342F8043B094B9A42F9D3FEF741
:1040100067F900F011F8FCF78FFB704700000220F1
:1040200018410008000000200C0000200C000020B7
:10403000004E0020FEE7000070B50D4E0D4CA41B95
:10404000A4100025A54209D10B4E0C4C00F02CF811
:10405000A41BA4100025A54205D170BD56F825303B
:1040600098470135EEE756F8253098470135F2E7D5
:1040700010410008104100081041000814410008D8
:1040800010B5431E0A44914200D110BD11F8014BF6
:1040900003F8014FF7E702440346934200D170470B
:1040A00003F8011BF9E70000F8B500BFF8BC08BC35
:1040B0009E467047F8B500BFF8BC08BC9E467047E6
:1040C00064656661756C745461736B006D795461DD
:1040D000736B3032000000000000000000000000A0
:1040E000010203040607080900000000010203049E
:1040F00049444C4500000000546D7251000000001E
:08410000546D72205376630038
:0841080038C1FF7F0100000037
:04411000F5010008AD
:04411400D1010008CD
:0C411800010000000024F400AAAAAAAADA
:0400000508003FE5CB
:00000001FF
